PS C:\code\Lizz> python main_join.py
测试用户数量: 6，委员会数量： 3，委员会门限： 2。
注资交易十六进制为: 0200000006e6dd9374f118820eee81ad2c3efd3fad641c681dd4ddeb70f11c00e81968d445000000006a47304402202be696572ee297809b8c455c14f9495221ce07f3575915c08215fb32dcc46cfb02200d2f820998ca8b20d5db3ea488ad7be116ea99c9da22afa2be2866a3f1661e6b0121025a0cda758a4123fbd86fe9af22b0f1d7003b230c21a575ce95348bd907c76c3affffffff630b66f202e6ca06bae740db740977b44e3851c325dbe1ff73d8a4a6d95154a4000000006a473044022038036375eb18e448d05c85cf2a98670b393af9efd0fc2feba57b6dc7a971f97f02205a7663f63183d12c9646cb7e5c81352b1c6053508365d9b55e3d34e91f253ebf012103d530375b7874d9501f0c0b91a2e13d1109138642ce82e835fb8dc26bffa5838bffffffffadd939b4a797b093b25439ef130318d44f025267a0b364ff3531c95443b885d3000000006a47304402200245ef2bd7517b8ef3b1ca94a2c2d2c4d34ce22f896c96b6fa769bec7b5f603402200cc61fad88946dda13bd3465c193365e4e6ce330bf64b65cae6830f6621967170121037015869b80f99d40ccded0e25a2ef925fdff627642dbb49b07dd3157e82da258ffffffffde009f75ef03ff51b650b43c290be8f835bfa0f11e3c701bc6999340447c95d6000000006a47304402203dae55926629235335d544cdd8f34fb9c34754ce87a7d2817c1377ed71fe729c02205b34de02c364591f3baac8d48509aa600b2115e4b2bcfac8ab10bd91ad224fa401210285cc01f2b2320190c1b6b2ee2539d6ad6a5fed7c32341746c2ff4ba0ba7fc5a2ffffffffb7c61abdde7962bc067ab13d3901f7860f11db0ad1df091110192149f4b5fcc1000000006a47304402202542f26c5e31b7562fe01658c624dfee5d4d55be243e87650fd2b3e00ca668d0022057d89d242e9d34fdf4909a4284e27dfb718427810c821a367f51afdf953ed8f1012102726b1e8c670e9c05b2cd157ded714246dfa7416d957753bf655f1465468264d6ffffffff5605ea303028ee008305f24813c6f78f3f798f8acc2a94a12fc010e68d980bce000000006a47304402206bb6de8ab42d175d23271e1c0d1b382252a4e47dbf45a9b9c21f489fbea4ffe302202e951c85da0be02507bc8ce7accd68ca656b60af0e3ec68de72e8276329f9167012103b752ed256607a27fd3be71e5f0538866c8208f9e7ed9a46d90ca749e13f12652ffffffff010046c32300000000fd38015221025a0cda758a4123fbd86fe9af22b0f1d7003b230c21a575ce95348bd907c76c3a2103d530375b7874d9501f0c0b91a2e13d1109138642ce82e835fb8dc26bffa5838b21037015869b80f99d40ccded0e25a2ef925fdff627642dbb49b07dd3157e82da258210285cc01f2b2320190c1b6b2ee2539d6ad6a5fed7c32341746c2ff4ba0ba7fc5a22102726b1e8c670e9c05b2cd157ded714246dfa7416d957753bf655f1465468264d62103b752ed256607a27fd3be71e5f0538866c8208f9e7ed9a46d90ca749e13f1265256ae5221025a0cda758a4123fbd86fe9af22b0f1d7003b230c21a575ce95348bd907c76c3a2103d530375b7874d9501f0c0b91a2e13d1109138642ce82e835fb8dc26bffa5838b21037015869b80f99d40ccded0e25a2ef925fdff627642dbb49b07dd3157e82da25853ae00000000
注资交易大小为：1215bytes
开启通道费用:19346satoshi,11.942655308600001$
{'inputs': [{'txid': '45d46819e8001cf170ebddd41d681c64ad3ffd3e2cad81ee0e8218f17493dde6', 'txout_index': 0, 'script_sig': ['304402202be696572ee297809b8c455c14f9495221ce07f3575915c08215fb32dcc46cfb02200d2f820998ca8b20d5db3ea488ad7be116ea99c9da22afa2be2866a3f1661e6b01', '025a0cda758a4123fbd86fe9af22b0f1d7003b230c21a575ce95348bd907c76c3a']}, {'txid': 'a45451d9a6a4d873ffe1db25c351384eb4770974db40e7ba06cae602f2660b63', 'txout_index': 0, 'script_sig': ['3044022038036375eb18e448d05c85cf2a98670b393af9efd0fc2feba57b6dc7a971f97f02205a7663f63183d12c9646cb7e5c81352b1c6053508365d9b55e3d34e91f253ebf01', '03d530375b7874d9501f0c0b91a2e13d1109138642ce82e835fb8dc26bffa5838b']}, {'txid': 'd385b84354c93135ff64b3a06752024fd4180313ef3954b293b097a7b439d9ad', 'txout_index': 0, 'script_sig': ['304402200245ef2bd7517b8ef3b1ca94a2c2d2c4d34ce22f896c96b6fa769bec7b5f603402200cc61fad88946dda13bd3465c193365e4e6ce330bf64b65cae6830f66219671701', '037015869b80f99d40ccded0e25a2ef925fdff627642dbb49b07dd3157e82da258']}, {'txid': 'd6957c44409399c61b703c1ef1a0bf35f8e80b293cb450b651ff03ef759f00de', 'txout_index': 0, 'script_sig': ['304402203dae55926629235335d544cdd8f34fb9c34754ce87a7d2817c1377ed71fe729c02205b34de02c364591f3baac8d48509aa600b2115e4b2bcfac8ab10bd91ad224fa401', '0285cc01f2b2320190c1b6b2ee2539d6ad6a5fed7c32341746c2ff4ba0ba7fc5a2']}, {'txid': 'c1fcb5f4492119101109dfd10adb110f86f701393db17a06bc6279debd1ac6b7', 'txout_index': 0, 'script_sig': ['304402202542f26c5e31b7562fe01658c624dfee5d4d55be243e87650fd2b3e00ca668d0022057d89d242e9d34fdf4909a4284e27dfb718427810c821a367f51afdf953ed8f101', '02726b1e8c670e9c05b2cd157ded714246dfa7416d957753bf655f1465468264d6']}, {'txid': 'ce0b988de610c02fa1942acc8a8f793f8ff7c61348f2058300ee283030ea0556', 'txout_index': 0, 'script_sig': ['304402206bb6de8ab42d175d23271e1c0d1b382252a4e47dbf45a9b9c21f489fbea4ffe302202e951c85da0be02507bc8ce7accd68ca656b60af0e3ec68de72e8276329f916701', '03b752ed256607a27fd3be71e5f0538866c8208f9e7ed9a46d90ca749e13f12652']}], 'outputs': [{'amount': 600000000, 'script_pubkey': [2, '025a0cda758a4123fbd86fe9af22b0f1d7003b230c21a575ce95348bd907c76c3a', '03d530375b7874d9501f0c0b91a2e13d1109138642ce82e835fb8dc26bffa5838b', '037015869b80f99d40ccded0e25a2ef925fdff627642dbb49b07dd3157e82da258', '0285cc01f2b2320190c1b6b2ee2539d6ad6a5fed7c32341746c2ff4ba0ba7fc5a2', '02726b1e8c670e9c05b2cd157ded714246dfa7416d957753bf655f1465468264d6', '03b752ed256607a27fd3be71e5f0538866c8208f9e7ed9a46d90ca749e13f12652', 6, 'OP_CHECKMULTISIG', 2, '025a0cda758a4123fbd86fe9af22b0f1d7003b230c21a575ce95348bd907c76c3a', '03d530375b7874d9501f0c0b91a2e13d1109138642ce82e835fb8dc26bffa5838b', '037015869b80f99d40ccded0e25a2ef925fdff627642dbb49b07dd3157e82da258', 3, 'OP_CHECKMULTISIG']}], 'has_segwit': False, 'witnesses': [], 'locktime': '00000000', 'version': '02000000'}

第二轮支付（加入一个用户）:

第1轮加入: 第1层的A7通过代理A1

双方支付通道注资交易费用为: 6115 satoshi, 3.7749062965 $
第1层的A1向第2层的A3支付
第1层的A1向第2层的A4支付
第1层的A2向第2层的A3支付
第1层的A2向第2层的A4支付
消息发送和接收时间为0.000101s
双方支付通道更新通信量大小为：432Bytes，创建，签名和广播交易的总时间为0.008009s。
TPC更新耗时：0.008009
第1层的A7（通过代理 A1）向第2层的A3支付
消息发送和接收时间为0.000099s
双方支付通道更新通信量大小为：720Bytes，创建，签名和广播交易的总时间为0.002357s。
TPC更新耗时：0.002357
第1层的A7（通过代理 A1）向第2层的A4支付
第2层的A3向第3层的A5支付
第2层的A3向第3层的A6支付
第2层的A4向第3层的A5支付
第2层的A4向第3层的A6支付

第二轮支付的总通信时延为：0.000332 s

第二轮总交易数量：10

第二轮时延：0.153338 s

第二轮吞吐量：65.215577 transactions/s

第二轮TPC耗时：0.013884 s


第三轮支付（加入两个用户）:

第2轮加入: 第2层的A8通过代理A3

双方支付通道注资交易费用为: 6115 satoshi, 3.7749062965 $
第1层的A1向第2层的A3支付
第1层的A1向第2层的A4支付
消息发送和接收时间为0.000181s
双方支付通道更新通信量大小为：432Bytes，创建，签名和广播交易的总时间为0.002484s。
TPC更新耗时：0.002484
第1层的A1向第2层的A8（通过代理 A3）支付
第1层的A2向第2层的A3支付
第1层的A2向第2层的A4支付
消息发送和接收时间为0.000134s
双方支付通道更新通信量大小为：720Bytes，创建，签名和广播交易的总时间为0.005021s。
TPC更新耗时：0.005021
第1层的A2向第2层的A8（通过代理 A3）支付
消息发送和接收时间为0.000114s
双方支付通道更新通信量大小为：720Bytes，创建，签名和广播交易的总时间为0.003546s。
TPC更新耗时：0.003546
第1层的A7（通过代理 A1）向第2层的A3支付
消息发送和接收时间为0.000116s
双方支付通道更新通信量大小为：720Bytes，创建，签名和广播交易的总时间为0.003621s。
TPC更新耗时：0.003621
第1层的A7（通过代理 A1）向第2层的A4支付
消息发送和接收时间为0.000113s
双方支付通道更新通信量大小为：720Bytes，创建，签名和广播交易的总时间为0.003529s。
TPC更新耗时：0.003529
消息发送和接收时间为0.000109s
双方支付通道更新通信量大小为：720Bytes，创建，签名和广播交易的总时间为0.004562s。
TPC更新耗时：0.008091
第1层的A7（通过代理 A1）向第2层的A8（通过代理 A3）支付
第2层的A3向第3层的A5支付
第2层的A3向第3层的A6支付
第2层的A4向第3层的A5支付
第2层的A4向第3层的A6支付
消息发送和接收时间为0.000104s
双方支付通道更新通信量大小为：720Bytes，创建，签名和广播交易的总时间为0.004418s。
TPC更新耗时：0.004418
第2层的A8（通过代理 A3）向第3层的A5支付
消息发送和接收时间为0.000116s
双方支付通道更新通信量大小为：720Bytes，创建，签名和广播交易的总时间为0.007607s。
TPC更新耗时：0.007607
第2层的A8（通过代理 A3）向第3层的A6支付

第三轮支付的总通信时延为：0.000541 s

第三轮总交易数量：15

第三轮时延：0.242156 s

第三轮吞吐量：61.943643 transactions/s

第三轮TPC耗时：0.042785 s


第四轮支付（加入三个用户）:

第3轮加入: 第3层的A9通过代理A5

双方支付通道注资交易费用为: 6115 satoshi, 3.7749062965 $
第1层的A1向第2层的A3支付
第1层的A1向第2层的A4支付
消息发送和接收时间为0.000163s
双方支付通道更新通信量大小为：720Bytes，创建，签名和广播交易的总时间为0.004932s。
TPC更新耗时：0.004932
第1层的A1向第2层的A8（通过代理 A3）支付
第1层的A2向第2层的A3支付
第1层的A2向第2层的A4支付
消息发送和接收时间为0.000109s
双方支付通道更新通信量大小为：720Bytes，创建，签名和广播交易的总时间为0.004644s。
TPC更新耗时：0.004644
第1层的A2向第2层的A8（通过代理 A3）支付
消息发送和接收时间为0.000097s
双方支付通道更新通信量大小为：720Bytes，创建，签名和广播交易的总时间为0.002370s。
TPC更新耗时：0.002370
第1层的A7（通过代理 A1）向第2层的A3支付
消息发送和接收时间为0.000110s
双方支付通道更新通信量大小为：720Bytes，创建，签名和广播交易的总时间为0.003614s。
TPC更新耗时：0.003614
第1层的A7（通过代理 A1）向第2层的A4支付
消息发送和接收时间为0.000103s
双方支付通道更新通信量大小为：720Bytes，创建，签名和广播交易的总时间为0.004453s。
TPC更新耗时：0.004453
消息发送和接收时间为0.000113s
双方支付通道更新通信量大小为：720Bytes，创建，签名和广播交易的总时间为0.002408s。
TPC更新耗时：0.006861
第1层的A7（通过代理 A1）向第2层的A8（通过代理 A3）支付
第2层的A3向第3层的A5支付
第2层的A3向第3层的A6支付
消息发送和接收时间为0.000114s
双方支付通道更新通信量大小为：432Bytes，创建，签名和广播交易的总时间为0.002450s。
TPC更新耗时：0.002450
第2层的A3向第3层的A9（通过代理 A5）支付
第2层的A4向第3层的A5支付
第2层的A4向第3层的A6支付
消息发送和接收时间为0.000118s
双方支付通道更新通信量大小为：720Bytes，创建，签名和广播交易的总时间为0.003603s。
TPC更新耗时：0.003603
第2层的A4向第3层的A9（通过代理 A5）支付
消息发送和接收时间为0.000104s
双方支付通道更新通信量大小为：720Bytes，创建，签名和广播交易的总时间为0.007664s。
TPC更新耗时：0.007664
第2层的A8（通过代理 A3）向第3层的A5支付
消息发送和接收时间为0.000103s
双方支付通道更新通信量大小为：720Bytes，创建，签名和广播交易的总时间为0.004386s。
TPC更新耗时：0.004386
第2层的A8（通过代理 A3）向第3层的A6支付
消息发送和接收时间为0.000108s
双方支付通道更新通信量大小为：720Bytes，创建，签名和广播交易的总时间为0.007405s。
TPC更新耗时：0.007405
消息发送和接收时间为0.000111s
双方支付通道更新通信量大小为：720Bytes，创建，签名和广播交易的总时间为0.004439s。
TPC更新耗时：0.011844
第2层的A8（通过代理 A3）向第3层的A9（通过代理 A5）支付

第四轮支付的总通信时延为：0.000736 s

第四轮总交易数量：18

第四轮时延：0.281282 s

第四轮吞吐量：63.992810 transactions/s

第四轮TPC耗时：0.056063 s

PS C:\code\Lizz> python main_join.py
测试用户数量: 6，委员会数量： 3，委员会门限： 2。
注资交易十六进制为: 0200000006e6dd9374f118820eee81ad2c3efd3fad641c681dd4ddeb70f11c00e81968d445000000006a47304402202be696572ee297809b8c455c14f9495221ce07f3575915c08215fb32dcc46cfb02200d2f820998ca8b20d5db3ea488ad7be116ea99c9da22afa2be2866a3f1661e6b0121025a0cda758a4123fbd86fe9af22b0f1d7003b230c21a575ce95348bd907c76c3affffffff630b66f202e6ca06bae740db740977b44e3851c325dbe1ff73d8a4a6d95154a4000000006a473044022038036375eb18e448d05c85cf2a98670b393af9efd0fc2feba57b6dc7a971f97f02205a7663f63183d12c9646cb7e5c81352b1c6053508365d9b55e3d34e91f253ebf012103d530375b7874d9501f0c0b91a2e13d1109138642ce82e835fb8dc26bffa5838bffffffffadd939b4a797b093b25439ef130318d44f025267a0b364ff3531c95443b885d3000000006a47304402200245ef2bd7517b8ef3b1ca94a2c2d2c4d34ce22f896c96b6fa769bec7b5f603402200cc61fad88946dda13bd3465c193365e4e6ce330bf64b65cae6830f6621967170121037015869b80f99d40ccded0e25a2ef925fdff627642dbb49b07dd3157e82da258ffffffffde009f75ef03ff51b650b43c290be8f835bfa0f11e3c701bc6999340447c95d6000000006a47304402203dae55926629235335d544cdd8f34fb9c34754ce87a7d2817c1377ed71fe729c02205b34de02c364591f3baac8d48509aa600b2115e4b2bcfac8ab10bd91ad224fa401210285cc01f2b2320190c1b6b2ee2539d6ad6a5fed7c32341746c2ff4ba0ba7fc5a2ffffffffb7c61abdde7962bc067ab13d3901f7860f11db0ad1df091110192149f4b5fcc1000000006a47304402202542f26c5e31b7562fe01658c624dfee5d4d55be243e87650fd2b3e00ca668d0022057d89d242e9d34fdf4909a4284e27dfb718427810c821a367f51afdf953ed8f1012102726b1e8c670e9c05b2cd157ded714246dfa7416d957753bf655f1465468264d6ffffffff5605ea303028ee008305f24813c6f78f3f798f8acc2a94a12fc010e68d980bce000000006a47304402206bb6de8ab42d175d23271e1c0d1b382252a4e47dbf45a9b9c21f489fbea4ffe302202e951c85da0be02507bc8ce7accd68ca656b60af0e3ec68de72e8276329f9167012103b752ed256607a27fd3be71e5f0538866c8208f9e7ed9a46d90ca749e13f12652ffffffff010046c32300000000fd38015221025a0cda758a4123fbd86fe9af22b0f1d7003b230c21a575ce95348bd907c76c3a2103d530375b7874d9501f0c0b91a2e13d1109138642ce82e835fb8dc26bffa5838b21037015869b80f99d40ccded0e25a2ef925fdff627642dbb49b07dd3157e82da258210285cc01f2b2320190c1b6b2ee2539d6ad6a5fed7c32341746c2ff4ba0ba7fc5a22102726b1e8c670e9c05b2cd157ded714246dfa7416d957753bf655f1465468264d62103b752ed256607a27fd3be71e5f0538866c8208f9e7ed9a46d90ca749e13f1265256ae5221025a0cda758a4123fbd86fe9af22b0f1d7003b230c21a575ce95348bd907c76c3a2103d530375b7874d9501f0c0b91a2e13d1109138642ce82e835fb8dc26bffa5838b21037015869b80f99d40ccded0e25a2ef925fdff627642dbb49b07dd3157e82da25853ae00000000
注资交易大小为：1215bytes
开启通道费用:19346satoshi,11.942655308600001$
{'inputs': [{'txid': '45d46819e8001cf170ebddd41d681c64ad3ffd3e2cad81ee0e8218f17493dde6', 'txout_index': 0, 'script_sig': ['304402202be696572ee297809b8c455c14f9495221ce07f3575915c08215fb32dcc46cfb02200d2f820998ca8b20d5db3ea488ad7be116ea99c9da22afa2be2866a3f1661e6b01', '025a0cda758a4123fbd86fe9af22b0f1d7003b230c21a575ce95348bd907c76c3a']}, {'txid': 'a45451d9a6a4d873ffe1db25c351384eb4770974db40e7ba06cae602f2660b63', 'txout_index': 0, 'script_sig': ['3044022038036375eb18e448d05c85cf2a98670b393af9efd0fc2feba57b6dc7a971f97f02205a7663f63183d12c9646cb7e5c81352b1c6053508365d9b55e3d34e91f253ebf01', '03d530375b7874d9501f0c0b91a2e13d1109138642ce82e835fb8dc26bffa5838b']}, {'txid': 'd385b84354c93135ff64b3a06752024fd4180313ef3954b293b097a7b439d9ad', 'txout_index': 0, 'script_sig': ['304402200245ef2bd7517b8ef3b1ca94a2c2d2c4d34ce22f896c96b6fa769bec7b5f603402200cc61fad88946dda13bd3465c193365e4e6ce330bf64b65cae6830f66219671701', '037015869b80f99d40ccded0e25a2ef925fdff627642dbb49b07dd3157e82da258']}, {'txid': 'd6957c44409399c61b703c1ef1a0bf35f8e80b293cb450b651ff03ef759f00de', 'txout_index': 0, 'script_sig': ['304402203dae55926629235335d544cdd8f34fb9c34754ce87a7d2817c1377ed71fe729c02205b34de02c364591f3baac8d48509aa600b2115e4b2bcfac8ab10bd91ad224fa401', '0285cc01f2b2320190c1b6b2ee2539d6ad6a5fed7c32341746c2ff4ba0ba7fc5a2']}, {'txid': 'c1fcb5f4492119101109dfd10adb110f86f701393db17a06bc6279debd1ac6b7', 'txout_index': 0, 'script_sig': ['304402202542f26c5e31b7562fe01658c624dfee5d4d55be243e87650fd2b3e00ca668d0022057d89d242e9d34fdf4909a4284e27dfb718427810c821a367f51afdf953ed8f101', '02726b1e8c670e9c05b2cd157ded714246dfa7416d957753bf655f1465468264d6']}, {'txid': 'ce0b988de610c02fa1942acc8a8f793f8ff7c61348f2058300ee283030ea0556', 'txout_index': 0, 'script_sig': ['304402206bb6de8ab42d175d23271e1c0d1b382252a4e47dbf45a9b9c21f489fbea4ffe302202e951c85da0be02507bc8ce7accd68ca656b60af0e3ec68de72e8276329f916701', '03b752ed256607a27fd3be71e5f0538866c8208f9e7ed9a46d90ca749e13f12652']}], 'outputs': [{'amount': 600000000, 'script_pubkey': [2, '025a0cda758a4123fbd86fe9af22b0f1d7003b230c21a575ce95348bd907c76c3a', '03d530375b7874d9501f0c0b91a2e13d1109138642ce82e835fb8dc26bffa5838b', '037015869b80f99d40ccded0e25a2ef925fdff627642dbb49b07dd3157e82da258', '0285cc01f2b2320190c1b6b2ee2539d6ad6a5fed7c32341746c2ff4ba0ba7fc5a2', '02726b1e8c670e9c05b2cd157ded714246dfa7416d957753bf655f1465468264d6', '03b752ed256607a27fd3be71e5f0538866c8208f9e7ed9a46d90ca749e13f12652', 6, 'OP_CHECKMULTISIG', 2, '025a0cda758a4123fbd86fe9af22b0f1d7003b230c21a575ce95348bd907c76c3a', '03d530375b7874d9501f0c0b91a2e13d1109138642ce82e835fb8dc26bffa5838b', '037015869b80f99d40ccded0e25a2ef925fdff627642dbb49b07dd3157e82da258', 3, 'OP_CHECKMULTISIG']}], 'has_segwit': False, 'witnesses': [], 'locktime': '00000000', 'version': '02000000'}

第二轮支付（加入一个用户）:

第1轮加入: 第1层的A7通过代理A1

双方支付通道注资交易费用为: 6115 satoshi, 3.7749062965 $
第1层的A1向第2层的A3支付
第1层的A1向第2层的A4支付
第1层的A2向第2层的A3支付
第1层的A2向第2层的A4支付
消息发送和接收时间为0.000103s
双方支付通道更新通信量大小为：432Bytes，创建，签名和广播交易的总时间为0.007498s。
TPC更新耗时：0.007498
第1层的A7（通过代理 A1）向第2层的A3支付
消息发送和接收时间为0.000121s
双方支付通道更新通信量大小为：720Bytes，创建，签名和广播交易的总时间为0.002638s。
TPC更新耗时：0.002638
第1层的A7（通过代理 A1）向第2层的A4支付
第2层的A3向第3层的A5支付
第2层的A3向第3层的A6支付
第2层的A4向第3层的A5支付
第2层的A4向第3层的A6支付

第二轮支付的总通信时延为：0.000337 s

第二轮总交易数量：10

第二轮时延：0.125146 s

第二轮吞吐量：79.906350 transactions/s

第二轮TPC耗时：0.013659 s


第三轮支付（加入两个用户）:

第2轮加入: 第2层的A8通过代理A3

双方支付通道注资交易费用为: 6115 satoshi, 3.7749062965 $
第1层的A1向第2层的A3支付
第1层的A1向第2层的A4支付
消息发送和接收时间为0.000113s
双方支付通道更新通信量大小为：432Bytes，创建，签名和广播交易的总时间为0.002631s。
TPC更新耗时：0.002631
第1层的A1向第2层的A8（通过代理 A3）支付
第1层的A2向第2层的A3支付
第1层的A2向第2层的A4支付
消息发送和接收时间为0.000120s
双方支付通道更新通信量大小为：720Bytes，创建，签名和广播交易的总时间为0.004582s。
TPC更新耗时：0.004582
第1层的A2向第2层的A8（通过代理 A3）支付
消息发送和接收时间为0.000113s
双方支付通道更新通信量大小为：720Bytes，创建，签名和广播交易的总时间为0.003370s。
TPC更新耗时：0.003370
第1层的A7（通过代理 A1）向第2层的A3支付
消息发送和接收时间为0.000168s
双方支付通道更新通信量大小为：720Bytes，创建，签名和广播交易的总时间为0.003809s。
TPC更新耗时：0.003809
第1层的A7（通过代理 A1）向第2层的A4支付
消息发送和接收时间为0.000104s
双方支付通道更新通信量大小为：720Bytes，创建，签名和广播交易的总时间为0.003870s。
TPC更新耗时：0.003870
消息发送和接收时间为0.000130s
双方支付通道更新通信量大小为：720Bytes，创建，签名和广播交易的总时间为0.004867s。
TPC更新耗时：0.008738
第1层的A7（通过代理 A1）向第2层的A8（通过代理 A3）支付
第2层的A3向第3层的A5支付
第2层的A3向第3层的A6支付
第2层的A4向第3层的A5支付
第2层的A4向第3层的A6支付
消息发送和接收时间为0.000118s
双方支付通道更新通信量大小为：720Bytes，创建，签名和广播交易的总时间为0.004543s。
TPC更新耗时：0.004543
第2层的A8（通过代理 A3）向第3层的A5支付
消息发送和接收时间为0.000102s
双方支付通道更新通信量大小为：720Bytes，创建，签名和广播交易的总时间为0.007370s。
TPC更新耗时：0.007370
第2层的A8（通过代理 A3）向第3层的A6支付

第三轮支付的总通信时延为：0.000536 s

第三轮总交易数量：15

第三轮时延：0.246840 s

第三轮吞吐量：60.768109 transactions/s

第三轮TPC耗时：0.042221 s


第四轮支付（加入三个用户）:

第3轮加入: 第3层的A9通过代理A5

双方支付通道注资交易费用为: 6115 satoshi, 3.7749062965 $
第1层的A1向第2层的A3支付
第1层的A1向第2层的A4支付
消息发送和接收时间为0.000107s
双方支付通道更新通信量大小为：720Bytes，创建，签名和广播交易的总时间为0.004550s。
TPC更新耗时：0.004550
第1层的A1向第2层的A8（通过代理 A3）支付
第1层的A2向第2层的A3支付
第1层的A2向第2层的A4支付
消息发送和接收时间为0.000102s
双方支付通道更新通信量大小为：720Bytes，创建，签名和广播交易的总时间为0.004470s。
TPC更新耗时：0.004470
第1层的A2向第2层的A8（通过代理 A3）支付
消息发送和接收时间为0.000104s
双方支付通道更新通信量大小为：720Bytes，创建，签名和广播交易的总时间为0.002425s。
TPC更新耗时：0.002425
第1层的A7（通过代理 A1）向第2层的A3支付
消息发送和接收时间为0.000109s
双方支付通道更新通信量大小为：720Bytes，创建，签名和广播交易的总时间为0.003537s。
TPC更新耗时：0.003537
第1层的A7（通过代理 A1）向第2层的A4支付
消息发送和接收时间为0.000119s
双方支付通道更新通信量大小为：720Bytes，创建，签名和广播交易的总时间为0.004574s。
TPC更新耗时：0.004574
消息发送和接收时间为0.000110s
双方支付通道更新通信量大小为：720Bytes，创建，签名和广播交易的总时间为0.002549s。
TPC更新耗时：0.007123
第1层的A7（通过代理 A1）向第2层的A8（通过代理 A3）支付
第2层的A3向第3层的A5支付
第2层的A3向第3层的A6支付
消息发送和接收时间为0.000108s
双方支付通道更新通信量大小为：432Bytes，创建，签名和广播交易的总时间为0.002422s。
TPC更新耗时：0.002422
第2层的A3向第3层的A9（通过代理 A5）支付
第2层的A4向第3层的A5支付
第2层的A4向第3层的A6支付
消息发送和接收时间为0.000113s
双方支付通道更新通信量大小为：720Bytes，创建，签名和广播交易的总时间为0.003614s。
TPC更新耗时：0.003614
第2层的A4向第3层的A9（通过代理 A5）支付
消息发送和接收时间为0.000104s
双方支付通道更新通信量大小为：720Bytes，创建，签名和广播交易的总时间为0.007464s。
TPC更新耗时：0.007464
第2层的A8（通过代理 A3）向第3层的A5支付
消息发送和接收时间为0.000102s
双方支付通道更新通信量大小为：720Bytes，创建，签名和广播交易的总时间为0.004418s。
TPC更新耗时：0.004418
第2层的A8（通过代理 A3）向第3层的A6支付
消息发送和接收时间为0.000100s
双方支付通道更新通信量大小为：720Bytes，创建，签名和广播交易的总时间为0.007674s。
TPC更新耗时：0.007674
消息发送和接收时间为0.000119s
双方支付通道更新通信量大小为：720Bytes，创建，签名和广播交易的总时间为0.004733s。
TPC更新耗时：0.012407
第2层的A8（通过代理 A3）向第3层的A9（通过代理 A5）支付

第四轮支付的总通信时延为：0.000744 s

第四轮总交易数量：18

第四轮时延：0.285419 s

第四轮吞吐量：63.065112 transactions/s

第四轮TPC耗时：0.055917 s

PS C:\code\Lizz> python main_join.py
测试用户数量: 6，委员会数量： 3，委员会门限： 2。
注资交易十六进制为: 0200000006e6dd9374f118820eee81ad2c3efd3fad641c681dd4ddeb70f11c00e81968d445000000006a47304402202be696572ee297809b8c455c14f9495221ce07f3575915c08215fb32dcc46cfb02200d2f820998ca8b20d5db3ea488ad7be116ea99c9da22afa2be2866a3f1661e6b0121025a0cda758a4123fbd86fe9af22b0f1d7003b230c21a575ce95348bd907c76c3affffffff630b66f202e6ca06bae740db740977b44e3851c325dbe1ff73d8a4a6d95154a4000000006a473044022038036375eb18e448d05c85cf2a98670b393af9efd0fc2feba57b6dc7a971f97f02205a7663f63183d12c9646cb7e5c81352b1c6053508365d9b55e3d34e91f253ebf012103d530375b7874d9501f0c0b91a2e13d1109138642ce82e835fb8dc26bffa5838bffffffffadd939b4a797b093b25439ef130318d44f025267a0b364ff3531c95443b885d3000000006a47304402200245ef2bd7517b8ef3b1ca94a2c2d2c4d34ce22f896c96b6fa769bec7b5f603402200cc61fad88946dda13bd3465c193365e4e6ce330bf64b65cae6830f6621967170121037015869b80f99d40ccded0e25a2ef925fdff627642dbb49b07dd3157e82da258ffffffffde009f75ef03ff51b650b43c290be8f835bfa0f11e3c701bc6999340447c95d6000000006a47304402203dae55926629235335d544cdd8f34fb9c34754ce87a7d2817c1377ed71fe729c02205b34de02c364591f3baac8d48509aa600b2115e4b2bcfac8ab10bd91ad224fa401210285cc01f2b2320190c1b6b2ee2539d6ad6a5fed7c32341746c2ff4ba0ba7fc5a2ffffffffb7c61abdde7962bc067ab13d3901f7860f11db0ad1df091110192149f4b5fcc1000000006a47304402202542f26c5e31b7562fe01658c624dfee5d4d55be243e87650fd2b3e00ca668d0022057d89d242e9d34fdf4909a4284e27dfb718427810c821a367f51afdf953ed8f1012102726b1e8c670e9c05b2cd157ded714246dfa7416d957753bf655f1465468264d6ffffffff5605ea303028ee008305f24813c6f78f3f798f8acc2a94a12fc010e68d980bce000000006a47304402206bb6de8ab42d175d23271e1c0d1b382252a4e47dbf45a9b9c21f489fbea4ffe302202e951c85da0be02507bc8ce7accd68ca656b60af0e3ec68de72e8276329f9167012103b752ed256607a27fd3be71e5f0538866c8208f9e7ed9a46d90ca749e13f12652ffffffff010046c32300000000fd38015221025a0cda758a4123fbd86fe9af22b0f1d7003b230c21a575ce95348bd907c76c3a2103d530375b7874d9501f0c0b91a2e13d1109138642ce82e835fb8dc26bffa5838b21037015869b80f99d40ccded0e25a2ef925fdff627642dbb49b07dd3157e82da258210285cc01f2b2320190c1b6b2ee2539d6ad6a5fed7c32341746c2ff4ba0ba7fc5a22102726b1e8c670e9c05b2cd157ded714246dfa7416d957753bf655f1465468264d62103b752ed256607a27fd3be71e5f0538866c8208f9e7ed9a46d90ca749e13f1265256ae5221025a0cda758a4123fbd86fe9af22b0f1d7003b230c21a575ce95348bd907c76c3a2103d530375b7874d9501f0c0b91a2e13d1109138642ce82e835fb8dc26bffa5838b21037015869b80f99d40ccded0e25a2ef925fdff627642dbb49b07dd3157e82da25853ae00000000
注资交易大小为：1215bytes
开启通道费用:19346satoshi,11.942655308600001$
{'inputs': [{'txid': '45d46819e8001cf170ebddd41d681c64ad3ffd3e2cad81ee0e8218f17493dde6', 'txout_index': 0, 'script_sig': ['304402202be696572ee297809b8c455c14f9495221ce07f3575915c08215fb32dcc46cfb02200d2f820998ca8b20d5db3ea488ad7be116ea99c9da22afa2be2866a3f1661e6b01', '025a0cda758a4123fbd86fe9af22b0f1d7003b230c21a575ce95348bd907c76c3a']}, {'txid': 'a45451d9a6a4d873ffe1db25c351384eb4770974db40e7ba06cae602f2660b63', 'txout_index': 0, 'script_sig': ['3044022038036375eb18e448d05c85cf2a98670b393af9efd0fc2feba57b6dc7a971f97f02205a7663f63183d12c9646cb7e5c81352b1c6053508365d9b55e3d34e91f253ebf01', '03d530375b7874d9501f0c0b91a2e13d1109138642ce82e835fb8dc26bffa5838b']}, {'txid': 'd385b84354c93135ff64b3a06752024fd4180313ef3954b293b097a7b439d9ad', 'txout_index': 0, 'script_sig': ['304402200245ef2bd7517b8ef3b1ca94a2c2d2c4d34ce22f896c96b6fa769bec7b5f603402200cc61fad88946dda13bd3465c193365e4e6ce330bf64b65cae6830f66219671701', '037015869b80f99d40ccded0e25a2ef925fdff627642dbb49b07dd3157e82da258']}, {'txid': 'd6957c44409399c61b703c1ef1a0bf35f8e80b293cb450b651ff03ef759f00de', 'txout_index': 0, 'script_sig': ['304402203dae55926629235335d544cdd8f34fb9c34754ce87a7d2817c1377ed71fe729c02205b34de02c364591f3baac8d48509aa600b2115e4b2bcfac8ab10bd91ad224fa401', '0285cc01f2b2320190c1b6b2ee2539d6ad6a5fed7c32341746c2ff4ba0ba7fc5a2']}, {'txid': 'c1fcb5f4492119101109dfd10adb110f86f701393db17a06bc6279debd1ac6b7', 'txout_index': 0, 'script_sig': ['304402202542f26c5e31b7562fe01658c624dfee5d4d55be243e87650fd2b3e00ca668d0022057d89d242e9d34fdf4909a4284e27dfb718427810c821a367f51afdf953ed8f101', '02726b1e8c670e9c05b2cd157ded714246dfa7416d957753bf655f1465468264d6']}, {'txid': 'ce0b988de610c02fa1942acc8a8f793f8ff7c61348f2058300ee283030ea0556', 'txout_index': 0, 'script_sig': ['304402206bb6de8ab42d175d23271e1c0d1b382252a4e47dbf45a9b9c21f489fbea4ffe302202e951c85da0be02507bc8ce7accd68ca656b60af0e3ec68de72e8276329f916701', '03b752ed256607a27fd3be71e5f0538866c8208f9e7ed9a46d90ca749e13f12652']}], 'outputs': [{'amount': 600000000, 'script_pubkey': [2, '025a0cda758a4123fbd86fe9af22b0f1d7003b230c21a575ce95348bd907c76c3a', '03d530375b7874d9501f0c0b91a2e13d1109138642ce82e835fb8dc26bffa5838b', '037015869b80f99d40ccded0e25a2ef925fdff627642dbb49b07dd3157e82da258', '0285cc01f2b2320190c1b6b2ee2539d6ad6a5fed7c32341746c2ff4ba0ba7fc5a2', '02726b1e8c670e9c05b2cd157ded714246dfa7416d957753bf655f1465468264d6', '03b752ed256607a27fd3be71e5f0538866c8208f9e7ed9a46d90ca749e13f12652', 6, 'OP_CHECKMULTISIG', 2, '025a0cda758a4123fbd86fe9af22b0f1d7003b230c21a575ce95348bd907c76c3a', '03d530375b7874d9501f0c0b91a2e13d1109138642ce82e835fb8dc26bffa5838b', '037015869b80f99d40ccded0e25a2ef925fdff627642dbb49b07dd3157e82da258', 3, 'OP_CHECKMULTISIG']}], 'has_segwit': False, 'witnesses': [], 'locktime': '00000000', 'version': '02000000'}

第二轮支付（加入一个用户）:

第1轮加入: 第1层的A7通过代理A1

双方支付通道注资交易费用为: 6115 satoshi, 3.7749062965 $
第1层的A1向第2层的A3支付
第1层的A1向第2层的A4支付
第1层的A2向第2层的A3支付
第1层的A2向第2层的A4支付
消息发送和接收时间为0.000101s
双方支付通道更新通信量大小为：432Bytes，创建，签名和广播交易的总时间为0.008058s。
TPC更新耗时：0.008058
第1层的A7（通过代理 A1）向第2层的A3支付
消息发送和接收时间为0.000100s
双方支付通道更新通信量大小为：720Bytes，创建，签名和广播交易的总时间为0.002387s。
TPC更新耗时：0.002387
第1层的A7（通过代理 A1）向第2层的A4支付
第2层的A3向第3层的A5支付
第2层的A3向第3层的A6支付
第2层的A4向第3层的A5支付
第2层的A4向第3层的A6支付

第二轮支付的总通信时延为：0.000306 s

第二轮总交易数量：10

第二轮时延：0.126335 s

第二轮吞吐量：79.154817 transactions/s

第二轮TPC耗时：0.014057 s


第三轮支付（加入两个用户）:

第2轮加入: 第2层的A8通过代理A3

双方支付通道注资交易费用为: 6115 satoshi, 3.7749062965 $
第1层的A1向第2层的A3支付
第1层的A1向第2层的A4支付
消息发送和接收时间为0.000121s
双方支付通道更新通信量大小为：432Bytes，创建，签名和广播交易的总时间为0.002457s。
TPC更新耗时：0.002457
第1层的A1向第2层的A8（通过代理 A3）支付
第1层的A2向第2层的A3支付
第1层的A2向第2层的A4支付
消息发送和接收时间为0.000128s
双方支付通道更新通信量大小为：720Bytes，创建，签名和广播交易的总时间为0.004963s。
TPC更新耗时：0.004963
第1层的A2向第2层的A8（通过代理 A3）支付
消息发送和接收时间为0.000108s
双方支付通道更新通信量大小为：720Bytes，创建，签名和广播交易的总时间为0.003333s。
TPC更新耗时：0.003333
第1层的A7（通过代理 A1）向第2层的A3支付
消息发送和接收时间为0.000111s
双方支付通道更新通信量大小为：720Bytes，创建，签名和广播交易的总时间为0.003552s。
TPC更新耗时：0.003552
第1层的A7（通过代理 A1）向第2层的A4支付
消息发送和接收时间为0.000104s
双方支付通道更新通信量大小为：720Bytes，创建，签名和广播交易的总时间为0.003628s。
TPC更新耗时：0.003628
消息发送和接收时间为0.000104s
双方支付通道更新通信量大小为：720Bytes，创建，签名和广播交易的总时间为0.004667s。
TPC更新耗时：0.008295
第1层的A7（通过代理 A1）向第2层的A8（通过代理 A3）支付
第2层的A3向第3层的A5支付
第2层的A3向第3层的A6支付
第2层的A4向第3层的A5支付
第2层的A4向第3层的A6支付
消息发送和接收时间为0.000134s
双方支付通道更新通信量大小为：720Bytes，创建，签名和广播交易的总时间为0.004670s。
TPC更新耗时：0.004670
第2层的A8（通过代理 A3）向第3层的A5支付
消息发送和接收时间为0.000115s
双方支付通道更新通信量大小为：720Bytes，创建，签名和广播交易的总时间为0.007460s。
TPC更新耗时：0.007460
第2层的A8（通过代理 A3）向第3层的A6支付

第三轮支付的总通信时延为：0.000579 s

第三轮总交易数量：15

第三轮时延：0.242061 s

第三轮吞吐量：61.967825 transactions/s

第三轮TPC耗时：0.041376 s


第四轮支付（加入三个用户）:

第3轮加入: 第3层的A9通过代理A5

双方支付通道注资交易费用为: 6115 satoshi, 3.7749062965 $
第1层的A1向第2层的A3支付
第1层的A1向第2层的A4支付
消息发送和接收时间为0.000109s
双方支付通道更新通信量大小为：720Bytes，创建，签名和广播交易的总时间为0.004627s。
TPC更新耗时：0.004627
第1层的A1向第2层的A8（通过代理 A3）支付
第1层的A2向第2层的A3支付
第1层的A2向第2层的A4支付
消息发送和接收时间为0.000164s
双方支付通道更新通信量大小为：720Bytes，创建，签名和广播交易的总时间为0.005736s。
TPC更新耗时：0.005736
第1层的A2向第2层的A8（通过代理 A3）支付
消息发送和接收时间为0.000107s
双方支付通道更新通信量大小为：720Bytes，创建，签名和广播交易的总时间为0.002416s。
TPC更新耗时：0.002416
第1层的A7（通过代理 A1）向第2层的A3支付
消息发送和接收时间为0.000115s
双方支付通道更新通信量大小为：720Bytes，创建，签名和广播交易的总时间为0.003582s。
TPC更新耗时：0.003582
第1层的A7（通过代理 A1）向第2层的A4支付
消息发送和接收时间为0.000104s
双方支付通道更新通信量大小为：720Bytes，创建，签名和广播交易的总时间为0.004503s。
TPC更新耗时：0.004503
消息发送和接收时间为0.000117s
双方支付通道更新通信量大小为：720Bytes，创建，签名和广播交易的总时间为0.002491s。
TPC更新耗时：0.006994
第1层的A7（通过代理 A1）向第2层的A8（通过代理 A3）支付
第2层的A3向第3层的A5支付
第2层的A3向第3层的A6支付
消息发送和接收时间为0.000115s
双方支付通道更新通信量大小为：432Bytes，创建，签名和广播交易的总时间为0.002385s。
TPC更新耗时：0.002385
第2层的A3向第3层的A9（通过代理 A5）支付
第2层的A4向第3层的A5支付
第2层的A4向第3层的A6支付
消息发送和接收时间为0.000119s
双方支付通道更新通信量大小为：720Bytes，创建，签名和广播交易的总时间为0.003993s。
TPC更新耗时：0.003993
第2层的A4向第3层的A9（通过代理 A5）支付
消息发送和接收时间为0.000118s
双方支付通道更新通信量大小为：720Bytes，创建，签名和广播交易的总时间为0.007672s。
TPC更新耗时：0.007672
第2层的A8（通过代理 A3）向第3层的A5支付
消息发送和接收时间为0.000108s
双方支付通道更新通信量大小为：720Bytes，创建，签名和广播交易的总时间为0.004516s。
TPC更新耗时：0.004516
第2层的A8（通过代理 A3）向第3层的A6支付
消息发送和接收时间为0.000110s
双方支付通道更新通信量大小为：720Bytes，创建，签名和广播交易的总时间为0.007368s。
TPC更新耗时：0.007368
消息发送和接收时间为0.000113s
双方支付通道更新通信量大小为：720Bytes，创建，签名和广播交易的总时间为0.004541s。
TPC更新耗时：0.011909
第2层的A8（通过代理 A3）向第3层的A9（通过代理 A5）支付

第四轮支付的总通信时延为：0.000746 s

第四轮总交易数量：18

第四轮时延：0.290688 s

第四轮吞吐量：61.922146 transactions/s

第四轮TPC耗时：0.058707 s

PS C:\code\Lizz> python main_join.py
测试用户数量: 6，委员会数量： 3，委员会门限： 2。
注资交易十六进制为: 0200000006e6dd9374f118820eee81ad2c3efd3fad641c681dd4ddeb70f11c00e81968d445000000006a47304402202be696572ee297809b8c455c14f9495221ce07f3575915c08215fb32dcc46cfb02200d2f820998ca8b20d5db3ea488ad7be116ea99c9da22afa2be2866a3f1661e6b0121025a0cda758a4123fbd86fe9af22b0f1d7003b230c21a575ce95348bd907c76c3affffffff630b66f202e6ca06bae740db740977b44e3851c325dbe1ff73d8a4a6d95154a4000000006a473044022038036375eb18e448d05c85cf2a98670b393af9efd0fc2feba57b6dc7a971f97f02205a7663f63183d12c9646cb7e5c81352b1c6053508365d9b55e3d34e91f253ebf012103d530375b7874d9501f0c0b91a2e13d1109138642ce82e835fb8dc26bffa5838bffffffffadd939b4a797b093b25439ef130318d44f025267a0b364ff3531c95443b885d3000000006a47304402200245ef2bd7517b8ef3b1ca94a2c2d2c4d34ce22f896c96b6fa769bec7b5f603402200cc61fad88946dda13bd3465c193365e4e6ce330bf64b65cae6830f6621967170121037015869b80f99d40ccded0e25a2ef925fdff627642dbb49b07dd3157e82da258ffffffffde009f75ef03ff51b650b43c290be8f835bfa0f11e3c701bc6999340447c95d6000000006a47304402203dae55926629235335d544cdd8f34fb9c34754ce87a7d2817c1377ed71fe729c02205b34de02c364591f3baac8d48509aa600b2115e4b2bcfac8ab10bd91ad224fa401210285cc01f2b2320190c1b6b2ee2539d6ad6a5fed7c32341746c2ff4ba0ba7fc5a2ffffffffb7c61abdde7962bc067ab13d3901f7860f11db0ad1df091110192149f4b5fcc1000000006a47304402202542f26c5e31b7562fe01658c624dfee5d4d55be243e87650fd2b3e00ca668d0022057d89d242e9d34fdf4909a4284e27dfb718427810c821a367f51afdf953ed8f1012102726b1e8c670e9c05b2cd157ded714246dfa7416d957753bf655f1465468264d6ffffffff5605ea303028ee008305f24813c6f78f3f798f8acc2a94a12fc010e68d980bce000000006a47304402206bb6de8ab42d175d23271e1c0d1b382252a4e47dbf45a9b9c21f489fbea4ffe302202e951c85da0be02507bc8ce7accd68ca656b60af0e3ec68de72e8276329f9167012103b752ed256607a27fd3be71e5f0538866c8208f9e7ed9a46d90ca749e13f12652ffffffff010046c32300000000fd38015221025a0cda758a4123fbd86fe9af22b0f1d7003b230c21a575ce95348bd907c76c3a2103d530375b7874d9501f0c0b91a2e13d1109138642ce82e835fb8dc26bffa5838b21037015869b80f99d40ccded0e25a2ef925fdff627642dbb49b07dd3157e82da258210285cc01f2b2320190c1b6b2ee2539d6ad6a5fed7c32341746c2ff4ba0ba7fc5a22102726b1e8c670e9c05b2cd157ded714246dfa7416d957753bf655f1465468264d62103b752ed256607a27fd3be71e5f0538866c8208f9e7ed9a46d90ca749e13f1265256ae5221025a0cda758a4123fbd86fe9af22b0f1d7003b230c21a575ce95348bd907c76c3a2103d530375b7874d9501f0c0b91a2e13d1109138642ce82e835fb8dc26bffa5838b21037015869b80f99d40ccded0e25a2ef925fdff627642dbb49b07dd3157e82da25853ae00000000
注资交易大小为：1215bytes
开启通道费用:19346satoshi,11.942655308600001$
{'inputs': [{'txid': '45d46819e8001cf170ebddd41d681c64ad3ffd3e2cad81ee0e8218f17493dde6', 'txout_index': 0, 'script_sig': ['304402202be696572ee297809b8c455c14f9495221ce07f3575915c08215fb32dcc46cfb02200d2f820998ca8b20d5db3ea488ad7be116ea99c9da22afa2be2866a3f1661e6b01', '025a0cda758a4123fbd86fe9af22b0f1d7003b230c21a575ce95348bd907c76c3a']}, {'txid': 'a45451d9a6a4d873ffe1db25c351384eb4770974db40e7ba06cae602f2660b63', 'txout_index': 0, 'script_sig': ['3044022038036375eb18e448d05c85cf2a98670b393af9efd0fc2feba57b6dc7a971f97f02205a7663f63183d12c9646cb7e5c81352b1c6053508365d9b55e3d34e91f253ebf01', '03d530375b7874d9501f0c0b91a2e13d1109138642ce82e835fb8dc26bffa5838b']}, {'txid': 'd385b84354c93135ff64b3a06752024fd4180313ef3954b293b097a7b439d9ad', 'txout_index': 0, 'script_sig': ['304402200245ef2bd7517b8ef3b1ca94a2c2d2c4d34ce22f896c96b6fa769bec7b5f603402200cc61fad88946dda13bd3465c193365e4e6ce330bf64b65cae6830f66219671701', '037015869b80f99d40ccded0e25a2ef925fdff627642dbb49b07dd3157e82da258']}, {'txid': 'd6957c44409399c61b703c1ef1a0bf35f8e80b293cb450b651ff03ef759f00de', 'txout_index': 0, 'script_sig': ['304402203dae55926629235335d544cdd8f34fb9c34754ce87a7d2817c1377ed71fe729c02205b34de02c364591f3baac8d48509aa600b2115e4b2bcfac8ab10bd91ad224fa401', '0285cc01f2b2320190c1b6b2ee2539d6ad6a5fed7c32341746c2ff4ba0ba7fc5a2']}, {'txid': 'c1fcb5f4492119101109dfd10adb110f86f701393db17a06bc6279debd1ac6b7', 'txout_index': 0, 'script_sig': ['304402202542f26c5e31b7562fe01658c624dfee5d4d55be243e87650fd2b3e00ca668d0022057d89d242e9d34fdf4909a4284e27dfb718427810c821a367f51afdf953ed8f101', '02726b1e8c670e9c05b2cd157ded714246dfa7416d957753bf655f1465468264d6']}, {'txid': 'ce0b988de610c02fa1942acc8a8f793f8ff7c61348f2058300ee283030ea0556', 'txout_index': 0, 'script_sig': ['304402206bb6de8ab42d175d23271e1c0d1b382252a4e47dbf45a9b9c21f489fbea4ffe302202e951c85da0be02507bc8ce7accd68ca656b60af0e3ec68de72e8276329f916701', '03b752ed256607a27fd3be71e5f0538866c8208f9e7ed9a46d90ca749e13f12652']}], 'outputs': [{'amount': 600000000, 'script_pubkey': [2, '025a0cda758a4123fbd86fe9af22b0f1d7003b230c21a575ce95348bd907c76c3a', '03d530375b7874d9501f0c0b91a2e13d1109138642ce82e835fb8dc26bffa5838b', '037015869b80f99d40ccded0e25a2ef925fdff627642dbb49b07dd3157e82da258', '0285cc01f2b2320190c1b6b2ee2539d6ad6a5fed7c32341746c2ff4ba0ba7fc5a2', '02726b1e8c670e9c05b2cd157ded714246dfa7416d957753bf655f1465468264d6', '03b752ed256607a27fd3be71e5f0538866c8208f9e7ed9a46d90ca749e13f12652', 6, 'OP_CHECKMULTISIG', 2, '025a0cda758a4123fbd86fe9af22b0f1d7003b230c21a575ce95348bd907c76c3a', '03d530375b7874d9501f0c0b91a2e13d1109138642ce82e835fb8dc26bffa5838b', '037015869b80f99d40ccded0e25a2ef925fdff627642dbb49b07dd3157e82da258', 3, 'OP_CHECKMULTISIG']}], 'has_segwit': False, 'witnesses': [], 'locktime': '00000000', 'version': '02000000'}

第二轮支付（加入一个用户）:

第1轮加入: 第1层的A7通过代理A1

双方支付通道注资交易费用为: 6115 satoshi, 3.7749062965 $
第1层的A1向第2层的A3支付
第1层的A1向第2层的A4支付
第1层的A2向第2层的A3支付
第1层的A2向第2层的A4支付
消息发送和接收时间为0.000167s
双方支付通道更新通信量大小为：432Bytes，创建，签名和广播交易的总时间为0.011730s。
TPC更新耗时：0.011730
第1层的A7（通过代理 A1）向第2层的A3支付
消息发送和接收时间为0.000202s
双方支付通道更新通信量大小为：720Bytes，创建，签名和广播交易的总时间为0.003521s。
TPC更新耗时：0.003521
第1层的A7（通过代理 A1）向第2层的A4支付
第2层的A3向第3层的A5支付
第2层的A3向第3层的A6支付
第2层的A4向第3层的A5支付
第2层的A4向第3层的A6支付

第二轮支付的总通信时延为：0.000335 s

第二轮总交易数量：10

第二轮时延：0.133689 s

第二轮吞吐量：74.800358 transactions/s

第二轮TPC耗时：0.018917 s


第三轮支付（加入两个用户）:

第2轮加入: 第2层的A8通过代理A3

双方支付通道注资交易费用为: 6115 satoshi, 3.7749062965 $
第1层的A1向第2层的A3支付
第1层的A1向第2层的A4支付
消息发送和接收时间为0.000115s
双方支付通道更新通信量大小为：432Bytes，创建，签名和广播交易的总时间为0.002604s。
TPC更新耗时：0.002604
第1层的A1向第2层的A8（通过代理 A3）支付
第1层的A2向第2层的A3支付
第1层的A2向第2层的A4支付
消息发送和接收时间为0.000135s
双方支付通道更新通信量大小为：720Bytes，创建，签名和广播交易的总时间为0.004939s。
TPC更新耗时：0.004939
第1层的A2向第2层的A8（通过代理 A3）支付
消息发送和接收时间为0.000125s
双方支付通道更新通信量大小为：720Bytes，创建，签名和广播交易的总时间为0.003582s。
TPC更新耗时：0.003582
第1层的A7（通过代理 A1）向第2层的A3支付
消息发送和接收时间为0.000120s
双方支付通道更新通信量大小为：720Bytes，创建，签名和广播交易的总时间为0.003805s。
TPC更新耗时：0.003805
第1层的A7（通过代理 A1）向第2层的A4支付
消息发送和接收时间为0.000112s
双方支付通道更新通信量大小为：720Bytes，创建，签名和广播交易的总时间为0.003699s。
TPC更新耗时：0.003699
消息发送和接收时间为0.000129s
双方支付通道更新通信量大小为：720Bytes，创建，签名和广播交易的总时间为0.005264s。
TPC更新耗时：0.008963
第1层的A7（通过代理 A1）向第2层的A8（通过代理 A3）支付
第2层的A3向第3层的A5支付
第2层的A3向第3层的A6支付
第2层的A4向第3层的A5支付
第2层的A4向第3层的A6支付
消息发送和接收时间为0.000104s
双方支付通道更新通信量大小为：720Bytes，创建，签名和广播交易的总时间为0.004544s。
TPC更新耗时：0.004544
第2层的A8（通过代理 A3）向第3层的A5支付
消息发送和接收时间为0.000121s
双方支付通道更新通信量大小为：720Bytes，创建，签名和广播交易的总时间为0.007706s。
TPC更新耗时：0.007706
第2层的A8（通过代理 A3）向第3层的A6支付

第三轮支付的总通信时延为：0.000570 s

第三轮总交易数量：15

第三轮时延：0.252723 s

第三轮吞吐量：59.353545 transactions/s

第三轮TPC耗时：0.043066 s


第四轮支付（加入三个用户）:

第3轮加入: 第3层的A9通过代理A5

双方支付通道注资交易费用为: 6115 satoshi, 3.7749062965 $
第1层的A1向第2层的A3支付
第1层的A1向第2层的A4支付
消息发送和接收时间为0.000124s
双方支付通道更新通信量大小为：720Bytes，创建，签名和广播交易的总时间为0.004807s。
TPC更新耗时：0.004807
第1层的A1向第2层的A8（通过代理 A3）支付
第1层的A2向第2层的A3支付
第1层的A2向第2层的A4支付
消息发送和接收时间为0.000128s
双方支付通道更新通信量大小为：720Bytes，创建，签名和广播交易的总时间为0.005111s。
TPC更新耗时：0.005111
第1层的A2向第2层的A8（通过代理 A3）支付
消息发送和接收时间为0.000111s
双方支付通道更新通信量大小为：720Bytes，创建，签名和广播交易的总时间为0.002565s。
TPC更新耗时：0.002565
第1层的A7（通过代理 A1）向第2层的A3支付
消息发送和接收时间为0.000136s
双方支付通道更新通信量大小为：720Bytes，创建，签名和广播交易的总时间为0.003707s。
TPC更新耗时：0.003707
第1层的A7（通过代理 A1）向第2层的A4支付
消息发送和接收时间为0.000102s
双方支付通道更新通信量大小为：720Bytes，创建，签名和广播交易的总时间为0.004505s。
TPC更新耗时：0.004505
消息发送和接收时间为0.000103s
双方支付通道更新通信量大小为：720Bytes，创建，签名和广播交易的总时间为0.002417s。
TPC更新耗时：0.006922
第1层的A7（通过代理 A1）向第2层的A8（通过代理 A3）支付
第2层的A3向第3层的A5支付
第2层的A3向第3层的A6支付
消息发送和接收时间为0.000104s
双方支付通道更新通信量大小为：432Bytes，创建，签名和广播交易的总时间为0.002459s。
TPC更新耗时：0.002459
第2层的A3向第3层的A9（通过代理 A5）支付
第2层的A4向第3层的A5支付
第2层的A4向第3层的A6支付
消息发送和接收时间为0.000112s
双方支付通道更新通信量大小为：720Bytes，创建，签名和广播交易的总时间为0.003518s。
TPC更新耗时：0.003518
第2层的A4向第3层的A9（通过代理 A5）支付
消息发送和接收时间为0.000118s
双方支付通道更新通信量大小为：720Bytes，创建，签名和广播交易的总时间为0.007957s。
TPC更新耗时：0.007957
第2层的A8（通过代理 A3）向第3层的A5支付
消息发送和接收时间为0.000106s
双方支付通道更新通信量大小为：720Bytes，创建，签名和广播交易的总时间为0.004501s。
TPC更新耗时：0.004501
第2层的A8（通过代理 A3）向第3层的A6支付
消息发送和接收时间为0.000118s
双方支付通道更新通信量大小为：720Bytes，创建，签名和广播交易的总时间为0.007580s。
TPC更新耗时：0.007580
消息发送和接收时间为0.000111s
双方支付通道更新通信量大小为：720Bytes，创建，签名和广播交易的总时间为0.004523s。
TPC更新耗时：0.012103
第2层的A8（通过代理 A3）向第3层的A9（通过代理 A5）支付

第四轮支付的总通信时延为：0.000770 s

第四轮总交易数量：18

第四轮时延：0.295489 s

第四轮吞吐量：60.916076 transactions/s

第四轮TPC耗时：0.057404 s

PS C:\code\Lizz> python main_join.py
测试用户数量: 6，委员会数量： 3，委员会门限： 2。
注资交易十六进制为: 0200000006e6dd9374f118820eee81ad2c3efd3fad641c681dd4ddeb70f11c00e81968d445000000006a47304402202be696572ee297809b8c455c14f9495221ce07f3575915c08215fb32dcc46cfb02200d2f820998ca8b20d5db3ea488ad7be116ea99c9da22afa2be2866a3f1661e6b0121025a0cda758a4123fbd86fe9af22b0f1d7003b230c21a575ce95348bd907c76c3affffffff630b66f202e6ca06bae740db740977b44e3851c325dbe1ff73d8a4a6d95154a4000000006a473044022038036375eb18e448d05c85cf2a98670b393af9efd0fc2feba57b6dc7a971f97f02205a7663f63183d12c9646cb7e5c81352b1c6053508365d9b55e3d34e91f253ebf012103d530375b7874d9501f0c0b91a2e13d1109138642ce82e835fb8dc26bffa5838bffffffffadd939b4a797b093b25439ef130318d44f025267a0b364ff3531c95443b885d3000000006a47304402200245ef2bd7517b8ef3b1ca94a2c2d2c4d34ce22f896c96b6fa769bec7b5f603402200cc61fad88946dda13bd3465c193365e4e6ce330bf64b65cae6830f6621967170121037015869b80f99d40ccded0e25a2ef925fdff627642dbb49b07dd3157e82da258ffffffffde009f75ef03ff51b650b43c290be8f835bfa0f11e3c701bc6999340447c95d6000000006a47304402203dae55926629235335d544cdd8f34fb9c34754ce87a7d2817c1377ed71fe729c02205b34de02c364591f3baac8d48509aa600b2115e4b2bcfac8ab10bd91ad224fa401210285cc01f2b2320190c1b6b2ee2539d6ad6a5fed7c32341746c2ff4ba0ba7fc5a2ffffffffb7c61abdde7962bc067ab13d3901f7860f11db0ad1df091110192149f4b5fcc1000000006a47304402202542f26c5e31b7562fe01658c624dfee5d4d55be243e87650fd2b3e00ca668d0022057d89d242e9d34fdf4909a4284e27dfb718427810c821a367f51afdf953ed8f1012102726b1e8c670e9c05b2cd157ded714246dfa7416d957753bf655f1465468264d6ffffffff5605ea303028ee008305f24813c6f78f3f798f8acc2a94a12fc010e68d980bce000000006a47304402206bb6de8ab42d175d23271e1c0d1b382252a4e47dbf45a9b9c21f489fbea4ffe302202e951c85da0be02507bc8ce7accd68ca656b60af0e3ec68de72e8276329f9167012103b752ed256607a27fd3be71e5f0538866c8208f9e7ed9a46d90ca749e13f12652ffffffff010046c32300000000fd38015221025a0cda758a4123fbd86fe9af22b0f1d7003b230c21a575ce95348bd907c76c3a2103d530375b7874d9501f0c0b91a2e13d1109138642ce82e835fb8dc26bffa5838b21037015869b80f99d40ccded0e25a2ef925fdff627642dbb49b07dd3157e82da258210285cc01f2b2320190c1b6b2ee2539d6ad6a5fed7c32341746c2ff4ba0ba7fc5a22102726b1e8c670e9c05b2cd157ded714246dfa7416d957753bf655f1465468264d62103b752ed256607a27fd3be71e5f0538866c8208f9e7ed9a46d90ca749e13f1265256ae5221025a0cda758a4123fbd86fe9af22b0f1d7003b230c21a575ce95348bd907c76c3a2103d530375b7874d9501f0c0b91a2e13d1109138642ce82e835fb8dc26bffa5838b21037015869b80f99d40ccded0e25a2ef925fdff627642dbb49b07dd3157e82da25853ae00000000
注资交易大小为：1215bytes
开启通道费用:19346satoshi,11.942655308600001$
{'inputs': [{'txid': '45d46819e8001cf170ebddd41d681c64ad3ffd3e2cad81ee0e8218f17493dde6', 'txout_index': 0, 'script_sig': ['304402202be696572ee297809b8c455c14f9495221ce07f3575915c08215fb32dcc46cfb02200d2f820998ca8b20d5db3ea488ad7be116ea99c9da22afa2be2866a3f1661e6b01', '025a0cda758a4123fbd86fe9af22b0f1d7003b230c21a575ce95348bd907c76c3a']}, {'txid': 'a45451d9a6a4d873ffe1db25c351384eb4770974db40e7ba06cae602f2660b63', 'txout_index': 0, 'script_sig': ['3044022038036375eb18e448d05c85cf2a98670b393af9efd0fc2feba57b6dc7a971f97f02205a7663f63183d12c9646cb7e5c81352b1c6053508365d9b55e3d34e91f253ebf01', '03d530375b7874d9501f0c0b91a2e13d1109138642ce82e835fb8dc26bffa5838b']}, {'txid': 'd385b84354c93135ff64b3a06752024fd4180313ef3954b293b097a7b439d9ad', 'txout_index': 0, 'script_sig': ['304402200245ef2bd7517b8ef3b1ca94a2c2d2c4d34ce22f896c96b6fa769bec7b5f603402200cc61fad88946dda13bd3465c193365e4e6ce330bf64b65cae6830f66219671701', '037015869b80f99d40ccded0e25a2ef925fdff627642dbb49b07dd3157e82da258']}, {'txid': 'd6957c44409399c61b703c1ef1a0bf35f8e80b293cb450b651ff03ef759f00de', 'txout_index': 0, 'script_sig': ['304402203dae55926629235335d544cdd8f34fb9c34754ce87a7d2817c1377ed71fe729c02205b34de02c364591f3baac8d48509aa600b2115e4b2bcfac8ab10bd91ad224fa401', '0285cc01f2b2320190c1b6b2ee2539d6ad6a5fed7c32341746c2ff4ba0ba7fc5a2']}, {'txid': 'c1fcb5f4492119101109dfd10adb110f86f701393db17a06bc6279debd1ac6b7', 'txout_index': 0, 'script_sig': ['304402202542f26c5e31b7562fe01658c624dfee5d4d55be243e87650fd2b3e00ca668d0022057d89d242e9d34fdf4909a4284e27dfb718427810c821a367f51afdf953ed8f101', '02726b1e8c670e9c05b2cd157ded714246dfa7416d957753bf655f1465468264d6']}, {'txid': 'ce0b988de610c02fa1942acc8a8f793f8ff7c61348f2058300ee283030ea0556', 'txout_index': 0, 'script_sig': ['304402206bb6de8ab42d175d23271e1c0d1b382252a4e47dbf45a9b9c21f489fbea4ffe302202e951c85da0be02507bc8ce7accd68ca656b60af0e3ec68de72e8276329f916701', '03b752ed256607a27fd3be71e5f0538866c8208f9e7ed9a46d90ca749e13f12652']}], 'outputs': [{'amount': 600000000, 'script_pubkey': [2, '025a0cda758a4123fbd86fe9af22b0f1d7003b230c21a575ce95348bd907c76c3a', '03d530375b7874d9501f0c0b91a2e13d1109138642ce82e835fb8dc26bffa5838b', '037015869b80f99d40ccded0e25a2ef925fdff627642dbb49b07dd3157e82da258', '0285cc01f2b2320190c1b6b2ee2539d6ad6a5fed7c32341746c2ff4ba0ba7fc5a2', '02726b1e8c670e9c05b2cd157ded714246dfa7416d957753bf655f1465468264d6', '03b752ed256607a27fd3be71e5f0538866c8208f9e7ed9a46d90ca749e13f12652', 6, 'OP_CHECKMULTISIG', 2, '025a0cda758a4123fbd86fe9af22b0f1d7003b230c21a575ce95348bd907c76c3a', '03d530375b7874d9501f0c0b91a2e13d1109138642ce82e835fb8dc26bffa5838b', '037015869b80f99d40ccded0e25a2ef925fdff627642dbb49b07dd3157e82da258', 3, 'OP_CHECKMULTISIG']}], 'has_segwit': False, 'witnesses': [], 'locktime': '00000000', 'version': '02000000'}

第二轮支付（加入一个用户）:

第1轮加入: 第1层的A7通过代理A1

双方支付通道注资交易费用为: 6115 satoshi, 3.7749062965 $
第1层的A1向第2层的A3支付
第1层的A1向第2层的A4支付
第1层的A2向第2层的A3支付
第1层的A2向第2层的A4支付
消息发送和接收时间为0.000123s
双方支付通道更新通信量大小为：432Bytes，创建，签名和广播交易的总时间为0.008022s。
TPC更新耗时：0.008022
第1层的A7（通过代理 A1）向第2层的A3支付
消息发送和接收时间为0.000107s
双方支付通道更新通信量大小为：720Bytes，创建，签名和广播交易的总时间为0.002531s。
TPC更新耗时：0.002531
第1层的A7（通过代理 A1）向第2层的A4支付
第2层的A3向第3层的A5支付
第2层的A3向第3层的A6支付
第2层的A4向第3层的A5支付
第2层的A4向第3层的A6支付

第二轮支付的总通信时延为：0.000320 s

第二轮总交易数量：10

第二轮时延：0.134556 s

第二轮吞吐量：74.318223 transactions/s

第二轮TPC耗时：0.014429 s


第三轮支付（加入两个用户）:

第2轮加入: 第2层的A8通过代理A3

双方支付通道注资交易费用为: 6115 satoshi, 3.7749062965 $
第1层的A1向第2层的A3支付
第1层的A1向第2层的A4支付
消息发送和接收时间为0.000105s
双方支付通道更新通信量大小为：432Bytes，创建，签名和广播交易的总时间为0.002483s。
TPC更新耗时：0.002483
第1层的A1向第2层的A8（通过代理 A3）支付
第1层的A2向第2层的A3支付
第1层的A2向第2层的A4支付
消息发送和接收时间为0.000139s
双方支付通道更新通信量大小为：720Bytes，创建，签名和广播交易的总时间为0.004728s。
TPC更新耗时：0.004728
第1层的A2向第2层的A8（通过代理 A3）支付
消息发送和接收时间为0.000128s
双方支付通道更新通信量大小为：720Bytes，创建，签名和广播交易的总时间为0.003494s。
TPC更新耗时：0.003494
第1层的A7（通过代理 A1）向第2层的A3支付
消息发送和接收时间为0.000117s
双方支付通道更新通信量大小为：720Bytes，创建，签名和广播交易的总时间为0.003730s。
TPC更新耗时：0.003730
第1层的A7（通过代理 A1）向第2层的A4支付
消息发送和接收时间为0.000108s
双方支付通道更新通信量大小为：720Bytes，创建，签名和广播交易的总时间为0.003569s。
TPC更新耗时：0.003569
消息发送和接收时间为0.000107s
双方支付通道更新通信量大小为：720Bytes，创建，签名和广播交易的总时间为0.004802s。
TPC更新耗时：0.008372
第1层的A7（通过代理 A1）向第2层的A8（通过代理 A3）支付
第2层的A3向第3层的A5支付
第2层的A3向第3层的A6支付
第2层的A4向第3层的A5支付
第2层的A4向第3层的A6支付
消息发送和接收时间为0.000104s
双方支付通道更新通信量大小为：720Bytes，创建，签名和广播交易的总时间为0.004612s。
TPC更新耗时：0.004612
第2层的A8（通过代理 A3）向第3层的A5支付
消息发送和接收时间为0.000105s
双方支付通道更新通信量大小为：720Bytes，创建，签名和广播交易的总时间为0.007568s。
TPC更新耗时：0.007568
第2层的A8（通过代理 A3）向第3层的A6支付

第三轮支付的总通信时延为：0.000549 s

第三轮总交易数量：15

第三轮时延：0.256456 s

第三轮吞吐量：58.489451 transactions/s

第三轮TPC耗时：0.041888 s


第四轮支付（加入三个用户）:

第3轮加入: 第3层的A9通过代理A5

双方支付通道注资交易费用为: 6115 satoshi, 3.7749062965 $
第1层的A1向第2层的A3支付
第1层的A1向第2层的A4支付
消息发送和接收时间为0.000115s
双方支付通道更新通信量大小为：720Bytes，创建，签名和广播交易的总时间为0.004730s。
TPC更新耗时：0.004730
第1层的A1向第2层的A8（通过代理 A3）支付
第1层的A2向第2层的A3支付
第1层的A2向第2层的A4支付
消息发送和接收时间为0.000106s
双方支付通道更新通信量大小为：720Bytes，创建，签名和广播交易的总时间为0.004594s。
TPC更新耗时：0.004594
第1层的A2向第2层的A8（通过代理 A3）支付
消息发送和接收时间为0.000105s
双方支付通道更新通信量大小为：720Bytes，创建，签名和广播交易的总时间为0.002445s。
TPC更新耗时：0.002445
第1层的A7（通过代理 A1）向第2层的A3支付
消息发送和接收时间为0.000105s
双方支付通道更新通信量大小为：720Bytes，创建，签名和广播交易的总时间为0.003606s。
TPC更新耗时：0.003606
第1层的A7（通过代理 A1）向第2层的A4支付
消息发送和接收时间为0.000112s
双方支付通道更新通信量大小为：720Bytes，创建，签名和广播交易的总时间为0.004740s。
TPC更新耗时：0.004740
消息发送和接收时间为0.000116s
双方支付通道更新通信量大小为：720Bytes，创建，签名和广播交易的总时间为0.002663s。
TPC更新耗时：0.007403
第1层的A7（通过代理 A1）向第2层的A8（通过代理 A3）支付
第2层的A3向第3层的A5支付
第2层的A3向第3层的A6支付
消息发送和接收时间为0.000109s
双方支付通道更新通信量大小为：432Bytes，创建，签名和广播交易的总时间为0.002872s。
TPC更新耗时：0.002872
第2层的A3向第3层的A9（通过代理 A5）支付
第2层的A4向第3层的A5支付
第2层的A4向第3层的A6支付
消息发送和接收时间为0.000116s
双方支付通道更新通信量大小为：720Bytes，创建，签名和广播交易的总时间为0.003975s。
TPC更新耗时：0.003975
第2层的A4向第3层的A9（通过代理 A5）支付
消息发送和接收时间为0.000115s
双方支付通道更新通信量大小为：720Bytes，创建，签名和广播交易的总时间为0.007921s。
TPC更新耗时：0.007921
第2层的A8（通过代理 A3）向第3层的A5支付
消息发送和接收时间为0.000126s
双方支付通道更新通信量大小为：720Bytes，创建，签名和广播交易的总时间为0.004981s。
TPC更新耗时：0.004981
第2层的A8（通过代理 A3）向第3层的A6支付
消息发送和接收时间为0.000108s
双方支付通道更新通信量大小为：720Bytes，创建，签名和广播交易的总时间为0.008099s。
TPC更新耗时：0.008099
消息发送和接收时间为0.000128s
双方支付通道更新通信量大小为：720Bytes，创建，签名和广播交易的总时间为0.004573s。
TPC更新耗时：0.012671
第2层的A8（通过代理 A3）向第3层的A9（通过代理 A5）支付

第四轮支付的总通信时延为：0.000794 s

第四轮总交易数量：18

第四轮时延：0.304754 s

第四轮吞吐量：59.064071 transactions/s

第四轮TPC耗时：0.058790 s